{"abi":[{"type":"constructor","inputs":[{"name":"_nftName","type":"string","internalType":"string"},{"name":"owner","type":"address","internalType":"address"}],"stateMutability":"nonpayable"},{"type":"function","name":"mintNft","inputs":[{"name":"points","type":"uint8","internalType":"uint8"},{"name":"_merchName","type":"string","internalType":"string"}],"outputs":[],"stateMutability":"nonpayable"},{"type":"function","name":"transfer","inputs":[{"name":"tokenId","type":"uint256","internalType":"uint256"},{"name":"reciever","type":"address","internalType":"address"}],"outputs":[],"stateMutability":"nonpayable"}],"bytecode":{"object":"0x60806040523480156200001157600080fd5b5060405162000c5b38038062000c5b83398101604081905262000034916200009d565b600180546001600160a01b0319166001600160a01b03831617905560008055600262000061838262000216565b505050620002e2565b634e487b7160e01b600052604160045260246000fd5b80516001600160a01b03811681146200009857600080fd5b919050565b60008060408385031215620000b157600080fd5b82516001600160401b0380821115620000c957600080fd5b818501915085601f830112620000de57600080fd5b815181811115620000f357620000f36200006a565b604051601f8201601f19908116603f011681019083821181831017156200011e576200011e6200006a565b816040528281526020935088848487010111156200013b57600080fd5b600091505b828210156200015f578482018401518183018501529083019062000140565b60008484830101528096505050506200017a81860162000080565b925050509250929050565b600181811c908216806200019a57607f821691505b602082108103620001bb57634e487b7160e01b600052602260045260246000fd5b50919050565b601f82111562000211576000816000526020600020601f850160051c81016020861015620001ec5750805b601f850160051c820191505b818110156200020d57828155600101620001f8565b5050505b505050565b81516001600160401b038111156200023257620002326200006a565b6200024a8162000243845462000185565b84620001c1565b602080601f831160018114620002825760008415620002695750858301515b600019600386901b1c1916600185901b1785556200020d565b600085815260208120601f198616915b82811015620002b35788860151825594840194600190910190840162000292565b5085821015620002d25787850151600019600388901b60f8161c191681555b5050505050600190811b01905550565b61096980620002f26000396000f3fe608060405234801561001057600080fd5b50600436106100365760003560e01c8063567d2cd31461003b578063b7760c8f14610050575b600080fd5b61004e610049366004610620565b610063565b005b61004e61005e3660046106ea565b6102da565b60015433906001600160a01b0316811461007c57600080fd5b6040805160208101909152600081526100ba622820a86100a06301e187e04261073c565b6100aa9190610750565b6100b5906001610764565b610424565b6100d76100cb6301e187e042610750565b6100b5906107b2610764565b6040516020016100e89291906107b5565b604051602081830303815290604052905060036040518060e0016040528060028054610113906107d2565b80601f016020809104026020016040519081016040528092919081815260200182805461013f906107d2565b801561018c5780601f106101615761010080835404028352916020019161018c565b820191906000526020600020905b81548152906001019060200180831161016f57829003601f168201915b505050505081526020018660ff1681526020016000548152602001858152602001838152602001600067ffffffffffffffff8111156101cd576101cd61060a565b6040519080825280602002602001820160405280156101f6578160200160208202803683370190505b508152600180546001600160a01b03166020928301528354908101845560009384529220815191926007020190819061022f908261085d565b50602082015160018201805460ff191660ff9092169190911790556040820151600282015560608201516003820190610268908261085d565b506080820151600482019061027d908261085d565b5060a08201518051610299916005840191602090910190610590565b5060c09190910151600690910180546001600160a01b0319166001600160a01b039092169190911790556000546102d1906001610764565b60005550505050565b60405133606081901b6bffffffffffffffffffffffff19166020830152839160340160405160208183030381529060405280519060200120600383815481106103255761032561091d565b60009182526020918290206006600790920201015460405161036b926001600160a01b03909216910160609190911b6bffffffffffffffffffffffff1916815260140190565b604051602081830303815290604052805190602001201461038b57600080fd5b6003848154811061039e5761039e61091d565b60009182526020808320600560079093020191909101805460018101825590835291200180546001600160a01b0319163317905560038054849190869081106103e9576103e961091d565b906000526020600020906007020160060160006101000a8154816001600160a01b0302191690836001600160a01b0316021790555050505050565b60606000610431836104b7565b600101905060008167ffffffffffffffff8111156104515761045161060a565b6040519080825280601f01601f19166020018201604052801561047b576020820181803683370190505b5090508181016020015b600019016f181899199a1a9b1b9c1cb0b131b232b360811b600a86061a8153600a850494508461048557509392505050565b60008072184f03e93ff9f4daa797ed6e38ed64bf6a1f0160401b83106104f65772184f03e93ff9f4daa797ed6e38ed64bf6a1f0160401b830492506040015b6d04ee2d6d415b85acef81000000008310610522576d04ee2d6d415b85acef8100000000830492506020015b662386f26fc10000831061054057662386f26fc10000830492506010015b6305f5e1008310610558576305f5e100830492506008015b612710831061056c57612710830492506004015b6064831061057e576064830492506002015b600a831061058a576001015b92915050565b8280548282559060005260206000209081019282156105e5579160200282015b828111156105e557825182546001600160a01b0319166001600160a01b039091161782556020909201916001909101906105b0565b506105f19291506105f5565b5090565b5b808211156105f157600081556001016105f6565b634e487b7160e01b600052604160045260246000fd5b6000806040838503121561063357600080fd5b823560ff8116811461064457600080fd5b9150602083013567ffffffffffffffff8082111561066157600080fd5b818501915085601f83011261067557600080fd5b8135818111156106875761068761060a565b604051601f8201601f19908116603f011681019083821181831017156106af576106af61060a565b816040528281528860208487010111156106c857600080fd5b8260208601602083013760006020848301015280955050505050509250929050565b600080604083850312156106fd57600080fd5b8235915060208301356001600160a01b038116811461071b57600080fd5b809150509250929050565b634e487b7160e01b600052601260045260246000fd5b60008261074b5761074b610726565b500690565b60008261075f5761075f610726565b500490565b8082018082111561058a57634e487b7160e01b600052601160045260246000fd5b6000815160005b818110156107a6576020818501810151868301520161078c565b50600093019283525090919050565b60006107ca6107c48386610785565b84610785565b949350505050565b600181811c908216806107e657607f821691505b60208210810361080657634e487b7160e01b600052602260045260246000fd5b50919050565b601f821115610858576000816000526020600020601f850160051c810160208610156108355750805b601f850160051c820191505b8181101561085457828155600101610841565b5050505b505050565b815167ffffffffffffffff8111156108775761087761060a565b61088b8161088584546107d2565b8461080c565b602080601f8311600181146108c057600084156108a85750858301515b600019600386901b1c1916600185901b178555610854565b600085815260208120601f198616915b828110156108ef578886015182559484019460019091019084016108d0565b508582101561090d5787850151600019600388901b60f8161c191681555b5050505050600190811b01905550565b634e487b7160e01b600052603260045260246000fdfea2646970667358221220189c8563e8894fb7797ebd64aa39c3e9e5e42cc2e58ad6ca6a685f3f29f7c8c264736f6c63430008180033","linkReferences":{}},"methodIdentifiers":{"mintNft(uint8,string)":"567d2cd3","transfer(uint256,address)":"b7760c8f"},"id":3}